:100000000C94011C0C94321C0C94321C0C94321C69
:100010000C94321C0C94321C0C94321C0C94321C28
:100020000C94321C0C94321C0C94321C0C94321C18
:100030000C94321C0C94321C0C94321C0C94321C08
:100040000C94321C0C94FBB50C94321C0C94321C96
:100050000C94321C0C94321C0C9489A30C9455E71C
:100060000C94321C0C94E57D0C94321C0C94321CC4
:100070000C94321C0C94321C0C94321C0C94321CC8
:100080000C94321C0C94321C0C94321C0C94321CB8
:100090000C94321C0C94321C0C94321C0C94321CA8
:1000A0000C94321C0C94321C0C94321C0C94321C98
:1000B0000C94321C0C94321C0C94321C0C94321C88
:1000C0000C94321C0C94321C0C94321C0C94321C78
:1000D0000C94321C0C94321C0C94321C0C94321C68
:1000E0000C94321C084AD73B3BCE016E84BCBFFD4A
:1000F000C12F3D6C74319ABD56833DDA3D00C77FF8
:1001000011BED9E4BB4C3E916BAAAABE0000008090
:100110003F05A84CCDB2D44EB93836A9020C50B91F
:10012000918688083CA6AAAA2ABE000000803F004B
:100130000D9488050D9461074E414E494E4954591E
:10014000494E46CDCCCC3D0AD7233C17B7D13877A2
:10015000CC2B329595E6241FB14F0A0000204100B8
:1001600000C84200401C4620BCBE4CCA1B0E5AAE02
:10017000C59D7400407A10F35A00A0724E18090011
:1001800010A5D4E80000E87648170000E40B5402FC
:100190000000CA9A3B000000E1F505000080969837
:1001A00000000040420F000000A086010000001087
:1001B0002700000000E803000000006400000000C9
:1001C000000A00000000000100000000002C76D8AA
:1001D00088DC674F0823DFC1DFAE59E1B1B796E590
:1001E000E3E453C63AE651997696E8E6C28426EBF4
:1001F000898C9B62ED407C6FFCEFBC9C9F40F2BA07
:10020000A56FA5F490055A2AF75C936B6CF9676D9E
:10021000C11BFCE0E40D47FEF520E6B500D0ED90F3
:100220002E0300943577050080841E080000204EC0
:100230000A000000C80C333333330F986E12831159
:1002400041EF8D2114893BE65516CFFEE6DB18D130
:10025000844B381BF77C1D901DA4BBE42420328402
:10026000725E228100C9F124ECA1E53D27434F4D88
:100270004D554E49434154494F4E004452595255F1
:100280004E004552524F525300494E464F0045438F
:10029000484F00656E7175657565696E672022004F
:1002A00020496E76616C6964206578747275646546
:1002B00072200000000000000000000000000000AC
:1002C000009643000096430000AF4342696C696E9C
:1002D000656172204C6576656C696E67204772694E
:1002E000643A0A00486F6D696E67206661696C65E3
:1002F000640047322F47332062616420706172616D
:100300006D65746572730A00202844525952554E27
:100310002900473239204175746F20426564204CB2
:100320006576656C696E67003F20284C2C522C4620
:100330002C4229206F7574206F6620626F756E6481
:10034000732E0A003F2856296572626F7365206C10
:100350006576656C20697320696D706C6175736971
:10036000626C652028302D34292E0A0042616420F9
:100370005A2076616C75650A004E6F2062696C695F
:100380006E65617220677269640A0050726F7465ED
:10039000637465642050696E0A0020573A00452056
:1003A000436F6F6C696E672E2E2E00452048656185
:1003B00074696E672E2E2E0020573A004265642025
:1003C000636F6F6C696E672E2E2E00426564206825
:1003D000656174696E672E2E2E00205A3A00204205
:1003E0003A0020436F756E7420413A0020453A0070
:1003F000205A3A0020593A00583A003A00436170B6
:100400003A004B64200023646566696E65204445AC
:100410004641554C545F004B692000236465666972
:100420006E652044454641554C545F004B7020009A
:1004300023646566696E652044454641554C545FAA
:1004400000504944204175746F74756E652066696B
:100450006E69736865642120507574207468652026
:100460006C617374204B702C204B6920616E64208A
:100470004B6420636F6E7374616E74732066726F69
:100480006D2062656C6F7720696E746F20436F6EAC
:1004900066696775726174696F6E2E680A005049EB
:1004A00044204175746F74756E65206661696C6572
:1004B00064212074696D656F75740A00453120549C
:1004C0004845524D414C2052554E415741590042EA
:1004D000454420544845524D414C2052554E4157B9
:1004E000415900546865726D616C2052756E617778
:1004F00061790045312048656174696E67206661E5
:10050000696C6564004265642068656174696E6742
:10051000206661696C65640048656174696E672076
:100520006661696C656400504944204175746F745C
:10053000756E65206661696C6564212054656D7017
:100540006572617475726520746F6F206869676881
:100550000A00204B643A2000204B693A2000204BCF
:10056000703A20000A20436C61737369632050491C
:1005700044200A002054753A2000204B753A200090
:10058000206D61783A2000206D696E3A2000206469
:100590003A200020626961733A20005049442041AA
:1005A00075746F74756E652073746172740A00508F
:1005B0004944204175746F74756E65206661696C7D
:1005C0006564212054656D70657261747572652073
:1005D000746F6F20686967680A005049442041754C
:1005E000746F74756E65206661696C656421204264
:1005F0006164206578747275646572206E756D62D1
:1006000065720A004F66660A0046616465204865A7
:10061000696768742000426564204C6576656C6982
:100620006E6720004661696C656420746F20656E9A
:1006300061626C6520426564204C6576656C696E0C
:10064000670A004D3630303A20546F6F20636F6C6C
:100650006400486F74656E6420746F6F20636F6C04
:10066000640A00496E736572742066696C616D6519
:100670006E7420616E64207072657373206275748D
:10068000746F6E0A00507265737320627574746FB4
:100690006E20746F2068656174206E6F7A7A6C6565
:1006A0000A00496E736572742066696C616D656ECF
:1006B0007420616E64207072657373206275747447
:1006C0006F6E20286F72204D313038290A00496E34
:1006D000736572742066696C616D656E7420616EFD
:1006E0006420707265737320627574746F6E202855
:1006F0006F72204D313038290A00536C6565702EB9
:100700002E2E00205A3A200020593A2000426564DB
:1007100020583A20004D65736820706F696E742010
:1007200063616E6E6F74206265207265736F6C76A4
:1007300065640A00436C69636B20746F2072657393
:10074000756D652E2E2E004E6F206D6F76652E0016
:10075000456E642066696C65206C6973740A00429A
:100760006567696E2066696C65206C6973740A0040
:10077000286E6F2066696C65290043757272656E1C
:10078000742066696C653A20005344207072696E6B
:1007900074696E67206279746520004E6F7420530F
:1007A00044207072696E74696E670A00256973006F
:1007B00025696D20256973002569682025696D20EC
:1007C00025697300256964202569682025696D20E5
:1007D00025697300256979202569642025696820C9
:1007E00025696D20256973005072696E74207469E3
:1007F0006D653A20006F6666008E02890282027B78
:10080000026D0244454255473A004B494C4C454421
:100810002E20004D3131332053006F6B0048455678
:100820004F20333030204F66662E002C20002C20C5
:1008300000544845524D414C5F50524F544543542B
:10084000494F4E004155544F5245504F52545F53FB
:10085000445F53544154555300454D455247454E0E
:1008600043595F50415253455200434153455F4CF9
:10087000494748545F4252494748544E45535300F4
:10088000544F47474C455F4C494748545300534FDA
:100890004654574152455F504F57455200425549C3
:1008A0004C445F50455243454E54004C4556454CD0
:1008B000494E475F44415441005A5F50524F4245B0
:1008C000004155544F4C4556454C005052494E54EA
:1008D0005F4A4F420050524F4752455353004155D3
:1008E000544F5245504F52545F54454D5000564F4F
:1008F0004C554D455452494300454550524F4D00CB
:1009000053455249414C5F584F4E5F584F46460041
:100910004649524D574152455F4E414D453A4D6112
:10092000726C696E20312E312E3920284769746827
:1009300075622920534F555243455F434F44455FED
:1009400055524C3A68747470733A2F2F6769746803
:1009500075622E636F6D2F4D61726C696E466972A0
:100960006D776172652F4D61726C696E2050524FC8
:10097000544F434F4C5F56455253494F4E3A312ED8
:1009800030204D414348494E455F545950453A48FF
:1009900045564F2033303020455854525544455227
:1009A0005F434F554E543A3120555549443A3165CD
:1009B0003030663635302D356665362D3434303678
:1009C0002D613933632D31323261613066623965B0
:1009D00037320A002F2F20004D31343520533C6927
:1009E0006E6465783E206F7574206F662072616E4C
:1009F00067652028302D31290A002054002052003C
:100A0000416363656C65726174696F6E3A20500072
:100A10005741524E494E4721204C6F77205A204A69
:100A200065726B206D6179206C65616420746F2044
:100A3000756E77616E746564207061757365732E71
:100A40000A004F666673657473206170706C696527
:100A500064004572723A20546F6F20666172210003
:100A6000546F6F206661722066726F6D20726566CA
:100A70006572656E636520706F696E740A00205A36
:100A800000205900580020204D61783A2000205A5B
:100A900000205900580020204D696E3A20004F6E0A
:100AA00020004F666600536F667420656E64737431
:100AB0006F70733A200020466C6F773A2000000177
:100AC00036372603FFFFFF353C3D380EFFFFFF3171
:100AD0002E303E12FFFFFFFF28FF0C080907FF061C
:100AE0001A1C18FFFF2A08440A0743496E76616CF6
:100AF00069642065787472756465720A0020643ACE
:100B00000020693A0020703A0043290A0061626CB3
:100B1000656420286D696E2074656D702000436FD8
:100B20006C642065787472756465732061726520E9
:100B30000020643A0020693A0020703A004E6F208D
:100B400063617365206C696768740A004D6573683A
:100B500020706F696E742063616E6E6F74206265C1
:100B6000207265736F6C7665640A004D34323120F3
:100B7000696E636F727265637420706172616D6516
:100B80007465722075736167650A00454550524F60
:100B90004D204F4B0A003F5A206F7574206F66201E
:100BA00072616E676520282D323020746F203230DC
:100BB000290A003A200050726F6265205A204F6661
:100BC0006673657400416374697665204578747254
:100BD000756465723A2000496E76616C69642065BF
:100BE000787472756465720A00526573656E643A52
:100BF00020006F6B0020746F6F206C6F6E67206534
:100C00007874727573696F6E2070726576656E7434
:100C100065640A0020636F6C642065787472757374
:100C2000696F6E2070726576656E7465640A006225
:100C30007573793A2070617573656420666F7220F0
:100C4000696E7075740A00627573793A2070617507
:100C500073656420666F7220757365720A00627531
:100C600073793A2070726F63657373696E670A00F7
:100C70004B494C4C45442E20004B494C4C20636161
:100C800075736564206279204B494C4C2062757401
:100C9000746F6E2F70696E0A004B494C4C45442EA0
:100CA00020004B494C4C2063617573656420627968
:100CB00020746F6F206D75636820696E616374695D
:100CC00076652074696D65202D2063757272656E7E
:100CD0007420636F6D6D616E643A2000506C6561C5
:100CE0007365207265736574005052494E544552C5
:100CF0002048414C544544005072696E746572201E
:100D000068616C7465642E206B696C6C28292063A3
:100D1000616C6C6564210A000000000000000000A6
:100D200000000000000048420000484200008040EF
:100D3000000000005761726E696E673A20486F6D5F
:100D4000696E672042756D702044697669736F72B1
:100D5000203C20310A000202040000A0400000A054
:100D6000400000004000009643000096430000AFA2
:100D700043FFFFFF4D33310053442072656164200F
:100D80006572726F720A00446F6E65207072696ED0
:100D900074696E672066696C650A004B494C4C4566
:100DA000442E200053544F505045442E2000507282
:100DB000696E7465722073746F70706564206475F9
:100DC0006520746F206572726F72732E2046697889
:100DD00020746865206572726F7220616E64207580
:100DE0007365204D39393920746F207265737461D1
:100DF00072742E202854656D706572617475726509
:100E00002069732072657365742E205365742069A0
:100E1000742061667465722072657374617274699E
:100E20006E67290A004E6F20436865636B73756DAA
:100E30002077697468206C696E65206E756D6265D7
:100E4000722C204C617374204C696E653A20004E00
:100E50006F20436865636B73756D207769746820D4
:100E60006C696E65206E756D6265722C204C6173C5
:100E700074204C696E653A2000636865636B737516
:100E80006D206D69736D617463682C204C6173749F
:100E9000204C696E653A20004C696E65204E756D78
:100EA000626572206973206E6F74204C61737420C8
:100EB0004C696E65204E756D6265722B312C204C2D
:100EC000617374204C696E653A20004D31313000F9
:100ED0007C3C3E5E2B3D3F2F5B5D3B2C2A225C0021
:100EE0004572726F722077726974696E6720746FD1
:100EF00020454550524F4D210A00454550524F4D17
:100F0000206461746173697A65206572726F722EF4
:100F10000A00290A002062797465733B20637263BA
:100F2000200053657474696E67732053746F726523
:100F300064202800290A002062797465733B2063CD
:100F4000726320002073746F72656420736574741B
:100F5000696E6773207265747269657665642028AE
:100F600000202863616C63756C6174656429210AD3
:100F70000020213D2000454550524F4D2043524313
:100F8000206D69736D61746368202D202873746F00
:100F90007265642920002053697A653A2000496E01
:100FA0006465783A2000204D61726C696E3D56355B
:100FB00036290A0028454550524F4D3D00454550C1
:100FC000524F4D2076657273696F6E206D69736D37
:100FD0006174636820001000C90210012C014001F7
:100FE000220170011801B0010E01F001040150024C
:100FF000FA00B002F0003003E600D003DC009004F9
:10100000D2007005C800A006BE000008B400B009F8
:10101000AA00D00BA000600E960060118C00001595
:10102000820020197800C01D6E00A0226400B02745
:101030005A00902C500000314600E0343C0010383B
:101040003200903A2800603C1E00A03D1400803E13
:101050000A00203F000048617264636F6465642089
:1010600044656661756C742053657474696E67734A
:10107000204C6F616465640A00B80B0000B80B0077
:1010800000640000008813000000009643000096F2
:10109000430000A0400000C8410000A0420000A0A2
:1010A00042000048440000B8423A0A0020286D6D12
:1010B000290020204D36303320002055004C0046BA
:1010C000696C616D656E74206C6F61642F756E6CF8
:1010D0006F6164206C656E677468733A0A00202043
:1010E0004D383531205A005A2D50726F6265204FAD
:1010F00066667365740020440020490020204D334B
:10110000303420500020440020490020204D33304E
:10111000312050005049442073657474696E6773C0
:101120003A0A0020460020420020480020204D318D
:1011300034352053004D6174657269616C206865B7
:101140006174757020706172616D65746572733A57
:101150000A00205A00204A00202047323920572018
:101160004900205A0020204D343230205300417570
:10117000746F20426564204C6576656C696E673AD1
:101180000A00205A0020590020204D3230362058C5
:1011900000486F6D65206F66667365743A0A0020BB
:1011A0004500205A002059002058002054002053A8
:1011B0000020204D32303520510020453C6D6178B3
:1011C0005F655F6A65726B3E0020583C6D61785FB9
:1011D000785F6A65726B3E20593C6D61785F795F1C
:1011E0006A65726B3E205A3C6D61785F7A5F6A6512
:1011F000726B3E00416476616E6365643A20513CD7
:101200006D696E5F7365676D656E745F74696D653A
:101210005F75733E20533C6D696E5F6665656472F1
:101220006174653E20543C6D696E5F7472617665D1
:101230006C5F66656564726174653E0020540020D1
:10124000520020204D323034205000416363656CE1
:1012500065726174696F6E2028756E6974732F737F
:1012600032293A20503C7072696E745F6163636525
:101270006C3E20523C726574726163745F6163639B
:10128000656C3E20543C74726176656C5F6163638B
:10129000656C3E0A00204500205A0020590020209D
:1012A0004D3230312058004D6178696D756D2041A7
:1012B0006363656C65726174696F6E2028756E6911
:1012C00074732F7332293A0A00204500205A0020F7
:1012D000590020204D3230332058004D6178696D1F
:1012E000756D206665656472617465732028756E1E
:1012F0006974732F73293A0A00204500205A002090
:10130000590020204D3932205800537465707320E5
:1013100070657220756E69743A0A0020204D323073
:10132000302044300A0020204D323030204400204C
:1013300044697361626C65640A0046696C616D653D
:101340006E742073657474696E67733A0020204D63
:101350003134392043203B20556E69747320696E07
:101360002043656C736975730A0020204732312071
:101370002020203B00545249474745524544006FC6
:1013800070656E003A20007A5F6D696E00795F6D5E
:10139000696E00785F6D696E005265706F72746976
:1013A0006E6720656E6473746F70207374617475FA
:1013B000730A0020746F6F206C6F6E6720657874FD
:1013C000727573696F6E2070726576656E74656490
:1013D0000A0020636F6C6420657874727573696F9E
:1013E0006E2070726576656E7465640A0024F4D4AC
:1013F0003050C38E20C2A24017828B7011127A9196
:101400000D816CD90AA861E108C75866076151438C
:10141000061E4B5D05C145A7041A411104093D98FC
:1014200003713931034036DB0265339102D4305405
:1014300002802E1D02632CEE01752AC501B028A082
:1014400001102781018F2564012B244B01E02234F8
:1014500001AC211F018D200D01801FFC00841EEDB9
:1014600000971DDF00B81CD200E61BC600201BBC85
:1014700000641AB200B219A8000A19A0006A1899EB
:1014800000D117910040178B00B516840031167EED
:1014900000B31579003A157300C7146F0058146A29
:1014A00000EE1366008813630025135E00C7125B0D
:1014B000006C12570015125400C111510070114FE9
:1014C0000021114B00D61049008D104700461044F2
:1014D0000002104200C00F4000800F3E00420F3C4F
:1014E00000060F3B00CB0E3800930E37005C0E3524
:1014F00000270E3400F30D3200C10D3100900D3085
:1015000000600D2E00320D2D00050D2C00D90C2B86
:1015100000AE0C2900850C29005C0C2700350C2737
:10152000000E0C2600E80B2400C40B2400A00B23A3
:10153000007D0B23005A0B2100390B2100180B20D2
:1015400000F80A1F00D90A1E00BB0A1E009D0A1DD2
:1015500000800A1D00630A1C00470A1B002C0A1B9E
:1015600000110A1A00F7091A00DD091900C4091947
:1015700000AB091900920917007B091800630917CD
:10158000004C09160036091600200916000A091534
:1015900000F5081500E0081400CC081400B8081481
:1015A00000A4081400900813007D0812006B0813B3
:1015B00000580812004608120034081100230811D0
:1015C000001208110001081100F0071000E00710D8
:1015D00000D0071000C0071000B0070F00A10710CF
:1015E0000091070E0083070F0074070F0065070EB8
:1015F0000057070E0049070E003B070D002E070E8F
:101600000020070D0013070D0006070D00F9060C5A
:1016100000ED060D00E0060C00D4060C00C8060C18
:1016200000BC060C00B0060C00A4060B0099060CCA
:10163000008D060B0082060B0077060B006C060B74
:101640000061060A0057060B004C060A0042060A13
:101650000038060A002E060A0024060A001A060AA6
:10166000001006090007060A00FD050900F4050937
:1016700000EB050900E2050900D9050900D00509BC
:1016800000C7050900BE050900B5050800AD05083D
:1016900000A50509009C050800940508008C0508B4
:1016A00000840508007C050800740508006C050727
:1016B00000650508005D050700560508004E050792
:1016C00000470507004005080038050700310507F9
:1016D000002A050700230507001C0506001605075C
:1016E000000F0507000805060002050700FB0406B9
:1016F00000F5040700EE040600E8040600E2040713
:1017000000DB040600D5040600CF040600C9040669
:1017100000C3040600BD040600B7040600B10405BA
:1017200000AC040600A6040600A00405009B040605
:101730000095040500900406008A04050085040550
:1017400000800406007A0405007504050070040595
:10175000006B04050066040500610405005C0405D7
:101760000057040500520405004D04050048040517
:1017700000430405003E0404003A04050035040556
:1017800000300404002C0405002704040023040591
:10179000001E0404001A04040016040500110404C9
:1017A000000D0404000904050004040400000404FE
:1017B00000FC030400F8030400F4030400F0030435
:1017C00000EC030400E8030400E4030400E0030465
:1017D00000DC030400D8030400D4030400D0030495
:1017E00000CC030400C8030300C503030024F40471
:1017F000D9201BC40C5C0E9804C4095F02650771F4
:1018000001F405F900FB04B30048048700C1036933
:10181000005803550003034500BE023A008402311C
:101820000053022A002902250004022000E4011CC2
:1018300000C8011900AF01170098011400840113BA
:1018400000710110006101100051010E0043010DF3
:101850000036010B002B010B0020010B00150109C4
:10186000000C01090003010800FB000800F3000858
:1018700000EB000700E4000600DE000600D80006CA
:1018800000D2000600CC000500C7000500C200051C
:1018900000BD000400B9000400B5000400B100045C
:1018A00000AD000400A9000400A5000300A200038D
:1018B000009F0004009B00030098000300950002B5
:1018C0000093000300900003008D0002008B0003D2
:1018D00000880002008600020084000300810002EC
:1018E000007F0002007D0002007B00020079000200
:1018F000007700010076000200740002007200010F
:1019000000710002006F0002006D0001006C000217
:10191000006A000100690002006700010066000122
:101920000065000100640002006200010061000126
:1019300000600001005F0002005D0001005C00012A
:10194000005B0001005A000100590001005800012D
:10195000005700010056000100550001005400012D
:10196000005300000053000100520001005100012B
:1019700000500001004F0001004E0000004E000129
:10198000004D0001004C0001004B0000004B000125
:10199000004A000100490001004800000048000121
:1019A000004700010046000000460001004500001D
:1019B0000045000100440001004300000043000115
:1019C000004200000042000100410000004100010F
:1019D00000400001003F0000003F0001003E000009
:1019E000003E0001003D0000003D0001003C000001
:1019F000003C0000003C0001003B0000003B0001F7
:101A0000003A0000003A00010039000000390001EE
:101A100000380000003800000038000100370000E6
:101A200000370001003600000036000000360001DB
:101A300000350000003500000035000100340000D2
:101A400000340000003400010033000000330000C7
:101A500000330001003200000032000000320001BB
:101A600000310000003100000031000100300000B2
:101A70000030000000300001002F0000002F0000A7
:101A8000002F0000002F0001002E0000002E00009B
:101A9000002E0001002D0000002D0000002D000090
:101AA000002D0001002C0000002C0000002C000084
:101AB000002C0001002B0000002B0000002B000078
:101AC000002B0001002A0000002A0000002A00006C
:101AD000002A000100290000002900000029000060
:101AE0000029000000290001002800000028000053
:101AF0000028000000280000002800010027000046
:101B00000027000000270000002700000027000138
:101B1000002600000026000000260000002600002D
:101B2000002600010025000000250000002500001F
:101B30000025000000250000002500010024000011
:101B40000024000000240000002400000024000104
:101B500000230000002300000023000000230000F9
:101B600000230000002300000023000100220000E9
:101B700000220000002200000022000000220000DD
:101B800000220001002100000021000000210000CF
:101B900000210000002100000021000000210001C0
:101BA00000200000002000000020000000200000B5
:101BB00000200000002000000020000000200001A4
:101BC000001F0000001F0000001F0000001F000099
:101BD000001F0000001F0000001F0001001E000089
:101BE000001E0000001E0000001E00000004370060
:101BF000001E290000511B000058100000100900B1
:101C000000CC040000780200004101000007FFFF43
:101C1000FFFFFF0001010101016265640A002C2041
:101C200073797374656D2073746F707065642120AF
:101C30004865617465725F49443A200042656420DA
:101C400068656174696E67206661696C65640048E7
:101C5000656174696E67206661696C656400453111
:101C60002048656174696E67206661696C6564000F
:101C700048656174696E67206661696C656400100F
:101C800000AA03F0013A019002220130031001D0B2
:101C90000302017004F7001005ED00B005E50050E7
:101CA00006DD00F006D7009007D1003008CC00D048
:101CB00008C7007009C300100ABE00B00ABB00507C
:101CC0000BB700F00BB300900CB000D00DAA0010C1
:101CD0000FA5005010A00090119B00D0129600B0EC
:101CE00014900090168B0070188500501A800030F8
:101CF0001C7B00B01E750030216F00B023690030DE
:101D000026640010285F00902A5A00702C5500F0BD
:101D10002E4F0070314800B0324500F03341007062
:101D2000363900103737005038330090392D00D045
:101D30003A2700B03C1C00503D1700F03D110090C8
:101D40003E0900D03FE5FF453120544845524D4102
:101D50004C2052554E415741590042454420544869
:101D600045524D414C2052554E41574159005468FF
:101D700065726D616C2052756E61776179004531D5
:101D8000204572723A204D415854454D50004572DD
:101D9000723A204D415854454D5020424544004D23
:101DA000415854454D502074726967676572656487
:101DB000004531204572723A204D494E54454D50F0
:101DC000004572723A204D494E54454D50204245CF
:101DD00044004D494E54454D502074726967676503
:101DE000726564004D383420582059205A2045002F
:101DF000202F002042403A0020403A0025753A2525
:101E000030327500253032753A253032750025752F
:101E10006420253032753A2530327500202020208C
:101E20002020005A005900202020200058000920BE
:101E3000000000000000000000000000003FFFF074
:101E400000000000000000000000000038007000EA
:101E5000000000000000000000000030FC30000026
:101E60000000000000000000000020FC1000000046
:101E700000000000000000000020781000000000BA
:101E800000000000000000002030100000000000F2
:101E9000000000000000002C00D03FC00000000047
:101EA0000000002082002E31D07FE0000000000002
:101EB00000001041002F7BD07FE0000000000000F8
:101EC000001041002F7BD07FE000000000000000E8
:101ED0002082002E31D03FC00000000000000041F1
:101EE00004002C00D03FC000000000000000820869
:101EF000002030107FE00000000000000082080099
:101F00002078107FE0000000000000004104002065
:101F1000FC107FE00000000000000020820030FC88
:101F2000301F80000000000000000000003800703A
:101F30000F0000000000000000FFFFC03FFFF006A0
:101F40000000000000000000FFFFC00000000000D3
:101F5000000000000000000000003FFFF000000053
:101F600000000000000000000038007000000000C9
:101F7000000000000000000031863000000000007A
:101F80000000000000000023871000000000000097
:101F90000000000000002787900000000000000003
:101FA00000000000002F87D00000000000000000AB
:101FB000000000002F03D03FC00000000000000020
:101FC0002082002030107FE00000000000000010A0
:101FD00041002078107FE000000000000000104168
:101FE000002078107FE00000000000000020820048
:101FF0002030103FC0000000000000004104002F0E
:1020000003D03FC0000000000000008208002F87BE
:10201000D07FE000000000000000820800278790C9
:102020007FE0000000000000004104002387107FD3
:10203000E0000000000000002082003186301F8098
:10204000000000000000000000003800700F0000D9
:10205000000000000000FFFFC03FFFF0060000008E
:102060000000000000FFFFC00000004845564F2060
:102070003330302052656164792E005072696E747D
:10208000696E672E2E2E005072696E742070617515
:10209000736564004D313036205025692053256921
:1020A000004D31303920532569004D3139302053EE
:1020B0002569004D3432302053300A4732382052DF
:1020C00030205820590053746F70207072696E74FC
:1020D00000526573756D65207072696E7400506F83
:1020E0007765722D4C6F7373205265636F766572DE
:1020F00079005072696E742061626F727465640059
:102100005072696E742066726F6D20534400537470
:102110006F70207072696E7400526573756D652002
:102120007072696E74004E6F205344206361726454
:10213000005061757365207072696E7400436F6E34
:1021400074726F6C00507265706172650054756EC8
:102150006500496E666F2073637265656E00436843
:10216000616E67652066696C616D656E74004368B9
:10217000616E67652066696C616D656E74004D36D1
:10218000303020423000466C6F7700466C6F77002D
:1021900046616E2073706565640046616E207370E1
:1021A0006565640042656400426564004E6F7A7A3A
:1021B0006C65004E6F7A7A6C6500466164652048F4
:1021C0006569676874004661646520486569676889
:1021D00074005370656564005370656564004D61FB
:1021E000696E005072656865617420504C412045ED
:1021F0006E64005072656865617420504C412042E5
:102200006564005072656865617420504C410050EF
:102210007265706172650050726568656174204115
:10222000425320456E6400507265686561742041B8
:1022300042532042656400507265686561742041B4
:1022400042530050726570617265004D343238003F
:102250005072656865617420504C4100436F6F6C2B
:10226000646F776E004368616E67652066696C61B4
:102270006D656E74004368616E67652066696C61A8
:102280006D656E74004D3630302042300044697305
:1022900061626C65207374657070657273004D388F
:1022A000340053657420686F6D65206F66667365D2
:1022B0007473005072656865617420414253004632
:1022C00061646520486569676874004661646520DB
:1022D000486569676874004F6666004F6E2000426B
:1022E0006564204C6576656C696E67004C65766543
:1022F0006C20626564004732380A47323900417504
:10230000746F20686F6D6500473238004D6F7665D9
:102310002061786973004D61696E004D6F766520AC
:1023200058004D6F76652059004D6F7665205A0034
:102330004578747275646572004D6F766520302E35
:10234000316D6D004D6F766520316D6D004D6F768E
:10235000652031306D6D004D6F7665206178697351
:10236000004578747275646572004D6F7665205A09
:10237000004D6F76652059004D6F766520580045F9
:1023800078747275646572004D6F7665205A004DE1
:102390006F76652059004D6F76652058004F666650
:1023A000004F6E2000536F667420456E6473746F27
:1023B0007073005072657061726500496E6974696E
:1023C000616C697A6520454550524F4D00436F6EF0
:1023D00074726F6C00526573746F72652066616908
:1023E0006C7361666500496E697469616C697A65D0
:1023F00020454550524F4D004C6F61642073657409
:1024000074696E67730053746F72652073657474BA
:10241000696E67730046696C616D656E74004D6F1F
:1024200074696F6E0054656D706572617475726564
:10243000004D61696E0050726568656174204142AB
:102440005320636F6E66005072656865617420503A
:102450004C4120636F6E66005049442D4400504942
:10246000442D44005049442D49005049442D490011
:102470005049442D50005049442D5000200820461A
:102480006163740020082046616374002008204DB9
:102490006178002008204D6178002008204D696E89
:1024A000002008204D696E004F6666004F6E2000C8
:1024B0004175746F74656D700046616E2073706550
:1024C00065640046616E20737065656400426564F2
:1024D00000426564004E6F7A7A6C65004E6F7A7ABE
:1024E0006C6500436F6E74726F6C0053746F72652D
:1024F0002073657474696E67730042656400426599
:1025000064004E6F7A7A6C65004E6F7A7A6C650063
:1025100046616E2073706565640046616E2073705D
:102520006565640054656D706572617475726500EF
:102530005654726176206D696E0056547261762031
:102540006D696E00566D696E00566D696E00566D50
:102550006178204500566D6178204500566D6178A0
:10256000205A00566D6178205A00566D61782059C6
:1025700000566D6178205900566D617820580056DC
:102580006D61782058004D6F74696F6E00416D6108
:1025900078204500416D6178204500416D617820CB
:1025A0005A00416D6178205A00416D6178205900D0
:1025B000416D6178205900416D6178205800416D6E
:1025C0006178205800412D74726176656C00412D50
:1025D00074726176656C00412D726574726163740A
:1025E00000412D7265747261637400416363656CB0
:1025F00000416363656C004D6F74696F6E005665D2
:102600002D6A65726B0056652D6A65726B00567A8D
:102610002D6A65726B00567A2D6A65726B00567969
:102620002D6A65726B0056792D6A65726B0056785B
:102630002D6A65726B0056782D6A65726B004D6F5E
:1026400074696F6E004573746570732F6D6D00450E
:1026500073746570732F6D6D005A73746570732F8A
:102660006D6D005A73746570732F6D6D00597374BE
:102670006570732F6D6D005973746570732F6D6D78
:10268000005873746570732F6D6D005873746570A6
:10269000732F6D6D004D6F74696F6E0053746570AC
:1026A000732F6D6D004A65726B00416363656C65E5
:1026B000726174696F6E0056656C6F63697479003E
:1026C00050726F6265205A204F66667365740050C1
:1026D000726F6265205A204F666673657400436F9F
:1026E0006E74726F6C004C6F6164206D6D004C6F86
:1026F0006164206D6D00556E6C6F6164206D6D00BE
:10270000556E6C6F6164206D6D0046696C2E2044BF
:1027100069612E0046696C2E204469612E004F6667
:1027200066004F6E20004520696E206D6D330043BA
:102730006F6E74726F6C0043616E6E6F7420656EA5
:10274000746572207375626469723A2000022E2EDD
:10275000004D61696E004D37303220542564004DC4
:1027600036303020423020542564004D373032203E
:102770003B2564004D3730312054256400436861A7
:102780006E67652066696C616D656E740050726578
:1027900068656174204142530050726568656174D8
:1027A00020504C41004368616E67652066696C612A
:1027B0006D656E74005052494E542050415553453A
:1027C0004400554E4C4F41442046494C414D454EE6
:1027D00054004C4F41442046494C414D454E540015
:1027E0005075726765206D6F726500436F6E746916
:1027F0006E756500524553554D45204F5054494F15
:102800004E533A0020204E6F7A7A6C653A2000636E
:1028100068616E6765006F66207468652066696C24
:10282000616D656E74005761697420666F72207304
:10283000746172740020204E6F7A7A6C653A2000C1
:10284000200066696C616D656E7420756E6C6F61D9
:1028500064005761697420666F720020204E6F7AA1
:102860007A6C653A20002000506C656173652077B2
:102870006169742E2E2E0048656174696E67206E42
:102880006F7A7A6C650020204E6F7A7A6C653A20F8
:1028900000200068656174206E6F7A7A6C652E0086
:1028A000507265737320627574746F6E20746F005C
:1028B00020204E6F7A7A6C653A2000746F20636F27
:1028C0006E74696E75652E2E2E00616E64207072B6
:1028D00065737320627574746F6E00496E736572F0
:1028E000742066696C616D656E740020204E6F7A8D
:1028F0007A6C653A2000200066696C616D656E74C3
:10290000206C6F6164005761697420666F720020EB
:10291000204E6F7A7A6C653A2000200066696C61FF
:102920006D656E74207075726765005761697420FB
:10293000666F7200746F20726573756D6500576104
:10294000697420666F72207072696E7400436172E0
:10295000642072656D6F76656400436172642069FE
:102960006E73657274656400000021002400270006
:102970002A002D003000330001010000040107018E
:102980000A0100002200250028002B002E00310043
:10299000340002010000050108010B0100002000C5
:1029A0002300260029002C002F0032000001000027
:1029B00003010601090105050505070508080808C2
:1029C000020202020A0A08080404040401010101C7
:1029D00001010101030303030303030304070707C2
:1029E0000C0C0C0C0C0C0C0C020202020606060667
:1029F000060606060B0B0B0B0B0B0B0B0102102034
:102A00002008081020401020408002010201080424
:102A100002010102040810204080804020100804B8
:102A20000201800402018040201008040201080411
:102A30000201010204081020408001020408102055
:102A4000408000000A0B02090C0D0E080703040168
:102A50000000000000000000000000000000000076
:102A60000000000000000000000000000000121143
:102A70001000000000000000000000000000000046
:102A80000000000000000000000000000000000046
:102A90000000000000000000000000000000000036
:102AA0000000000000000000000000000000000026
:102AB0000000000000000000000000000000000016
:102AC0000000000000000000000000000000000006
:102AD00000000000000000000000000000000000F6
:102AE00000000000000000000000000000000000E6
:102AF00000000000000000000000000000000000D6
:102B000000000000000000000000000000000000C5
:102B100000000000000000000000000000000000B5
:102B200000000000000000000000000000000000A5
:102B30000000000000000000000000000000000095
:102B40000000000000000000000000000000000085
:102B50000000000000000000000000000000000075
:102B60000000000000000000000000000000000065
:102B70000000000000000000000000000000000055
:102B8000000000000000000000000FFFFFFFFFFF3B
:102B9000FFFFFFFFFFFF800000003FFFFFFFFFFF81
:102BA000FFFFFFFFFFFF800000006000000000004B
:102BB000000000007FFF80000000C0000000000057
:102BC000000000003FFF80000000800000000000C7
:102BD000000000001FFF80000001800000000000D6
:102BE000000000000FFF80000001800000000000D6
:102BF0000001E00007FF80000001003E0FC0000060
:102C00000001E1C003FF8000000100FF9FF0000011
:102C10000001E3C001FF8000000101FFFFF8000098
:102C20000001E3C000FF8000000103FFFFF8000087
:102C30000001E1C0007F8000000103C1F87C0000BA
:102C40000001E000003F800000010380F03C0F80A5
:102C500007C1E1C03E1F800000010780F03C3FE05B
:102C60001FF1E3C0FF0F800000010780F03C7FF000
:102C70003FF9E3C1FF87800000010780F03CFFF8C7
:102C80003FF9E3C3FFC3800000010780F03CF07808
:102C90007C3DE3C3C3C1800000010780F03DE03C00
:102CA000783DE3C381E0800000010780F03DE03C17
:102CB000783DE3C381E0800000010780F03DE03C07
:102CC0007801E3C381E0800000010780F03DE03C33
:102CD0007801E3C381E0800000010780F03DE03C23
:102CE0007801E3C381E0800000010780F03CF03C04
:102CF0007801E3C381E0800000010780F03CFF3FE2
:102D0000F801F3E781E0800000010780F03C7FBF1D
:102D1000F800F9FF81E0800000018780F03C3FBFB0
:102D2000F80079FF81E0800000018380F01C0FBF74
:102D3000F80039FF81C18000000180000000000020
:102D400000000000000180000000C0000000000042
:102D500000000000000300000000E0000000000090
:102D600000000000000700000000780000000000E4
:102D700000000000000E000000001FFFFFFFFFFF2B
:102D8000FFFFFFFFFFF80000000007FFFFFFFFFF4E
:102D9000FFFFFFFFFFE00000000000000000000058
:102DA0000000000000000000000000000000000023
:102DB0000000000000000000000000000000000013
:102DC0000000000000000000000000000000000003
:102DD00000000000000000000000000000000000F3
:102DE00000000000000000000000000000000000E3
:102DF00000000000000000000000000000000000D3
:102E000000000000000000000000000000000000C2
:102E100000000000000000000000000000000000B2
:102E200000000000000000000000000000000000A2
:102E30000000000000000000000000000000000092
:102E40000000000000000000000000000000000082
:102E50000000000000000000000000000000000072
:102E60000000000000000000000000000000000062
:102E70000000000000000000000000000000000052
:102E800000000000000000001FFFFFFFFFFFFF60C9
:102E90000000000001FF400000000000FF80000073
:102EA0000000007F83CF00000C303F87FF80000CC4
:102EB000301F867980000C000F8C30C7838C30E780
:102EC0008C30CFC7CC31F38C30DCECEC33B98C30A8
:102ED000D86C6C33198C30D06C0C33198C30D86CA6
:102EE0000C33198C30DC6C0E3B198C30CF7C079F77
:102EF000198C30C77C038F1940000000000002606D
:102F00000000000000061FFFFFFFFFFFF8494E56BC
:102F1000414C49442044415441004D323420532512
:102F20006C642054256C64004D32332025730047B7
:102F300039322E30205A257320452573004D343206
:102F40003020532569205A257300473238205230EB
:102F500020582059004731205A32004739322E304C
:102F6000205A30004D343230205330205A30002067
:102F700020506C616E6E657242756666657242794C
:102F80007465733A20002046726565204D656D6F4B
:102F900072793A2000436F6D70696C65643A204D18
:102FA000617920323520323032300A00207C2041D5
:102FB0007574686F723A205154434E430A003230A0
:102FC00031382D30382D303100204C61737420554C
:102FD0007064617465643A2000312E312E390A0024
:102FE0004D61726C696E0020536F66747761726513
:102FF0002052657365740A00205761746368646FBA
:10300000672052657365740A002042726F776E20E4
:103010006F75742052657365740A00204578746575
:10302000726E616C2052657365740A00506F77652B
:103030007255700A0073746172740A006175746F5E
:1030400025692E67006572726F72207772697469E4
:103050006E6720746F2066696C650A00456E647344
:10306000746F7073202563202563202563202563FA
:1030700000205A3A0020593A0020583A00656E6400
:1030800073746F7073206869743A2000446F6E65C2
:1030900020736176696E672066696C652E0A004D43
:1030A0003239004D3234004D323320257300556ED5
:1030B0006B6E6F776E20636F6D6D616E643A202268
:1030C00000486F74656E6420746F6F20636F6C646A
:1030D0000A0057726974696E6720746F2066696CA4
:1030E000653A20006F70656E206661696C65642CBE
:1030F0002046696C653A200050726F62696E6720E5
:103100006661696C65640A0050726F62696E67205F
:103110006661696C656400205A3A200020593A20A3
:103120000042656420583A2000486F6D6520257381
:103130002573257320666972737400206669727343
:10314000740A005A0059005800486F6D65200053FA
:10315000442063617264206F6B0A006F70656E5269
:103160006F6F74206661696C65640A00766F6C75B8
:103170006D652E696E6974206661696C65640A000C
:10318000534420696E6974206661696C0A00577245
:103190006974696E6720746F2066696C653A2000F7
:1031A0006F70656E206661696C65642C2046696C81
:1031B000653A20006F70656E206661696C65642CED
:1031C0002046696C653A200046696C652073656C21
:1031D00065637465640A002053697A653A20004685
:1031E000696C65206F70656E65643A2000206669C1
:1031F0006C653A2000646F696E670066726573687B
:10320000004E6F772000454E4420535542524F5593
:1032100054494E450A002220706F730022207061CD
:1032200072656E743A2200535542524F5554494EBE
:10323000452043414C4C207461726765743A22000A
:103240004B494C4C45442E2000747279696E6720BE
:10325000746F2063616C6C207375622D67636F649B
:10326000652066696C6573207769746820746F6F78
:10327000206D616E79206C6576656C732E204D41F2
:1032800058206C6576656C2069733A0043616E6EF8
:103290006F74206F70656E207375626469722000B0
:1032A0006563686F3A0044656C6574696F6E20668B
:1032B00061696C65642C2046696C653A200046693A
:1032C0006C652064656C657465643A006F70656E4A
:1032D000206661696C65642C2046696C653A200043
:1032E0004572726F723A0000060900FE07019203F0
:1032F00021207FFF07FF07FF0000000600000107F5
:1033000007060200808080808000800302020601A0
:1033100005A0A00507070600005050F850F85050CF
:103320000507070600002078A07028F02005070791
:10333000060000C0C81020409818050707060000C6
:103340006090A040A89068020303060104C040807A
:103350000307070601002040808080402003070704
:103360000601008040202020408005050506000160
:1033700020A870A8200505050600012020F82020BF
:103380000203030602FFC04080050101060003F8A6
:10339000020202060200C0C0050505060001081071
:1033A000204080050707060000708888888888709C
:1033B00003070706010040C040404040E005070702
:1033C000060000708808708080F805070706000076
:1033D000F81020100808F00507070600001030500C
:1033E00090F81010050707060000F880F00808881C
:1033F00070050707060000708080F0888870050758
:1034000007060000F8081020202020050707060006
:10341000007088887088887005070706000070882B
:103420008878080870020505060200C0C000C0C008
:103430000206060602FFC0C000C04080040707065F
:10344000000010204080402010050303060002F811
:1034500000F8040707060100804020102040800586
:1034600007070600007088081020002005070706DF
:10347000000070880868A8A870050707060000709B
:103480008888F8888888050707060000F08888F093
:103490008888F005070706000070888080808870A3
:1034A000050707060000F08888888888F005070768
:1034B000060000F88080F08080F80507070600000D
:1034C000F88080F080808005070706000070888003
:1034D000B8888870050707060000888888F88888FB
:1034E00088010707060200808080808080800507B1
:1034F000070600003810101010906005070706003E
:10350000008890A0C0A09088050707060000808072
:1035100080808080F805070706000088D8A8888882
:1035200088880507070600008888C8A89888880545
:1035300007070600007088888888887005070706D6
:103540000000F08888F08080800507070600007082
:10355000888888A89068050707060000F08888F02A
:10356000A09088050707060000788080700808F0A2
:10357000050707060000F820202020202005070767
:10358000060000888888888888700507070600007C
:103590008888888888502005070706000088888862
:1035A0008888A850050707060000888850205088A2
:1035B0008805070706000088888850202020050716
:1035C00007060000F80810204080F80307070601EE
:1035D00000E08080808080E00505050600018040D5
:1035E000201008030707060100E02020202020E02B
:1035F000050303060004205088050101060000F8B9
:10360000020202060205804005050506000070085A
:103610007888780507070600008080B0C88888F0A1
:103620000505050600007080808870050707060004
:1036300000080868988888780505050600007088E5
:10364000F880700507070600003048E04040404021
:103650000506060600FF70888878087005070706CB
:1036600000008080B0C888888801070706020080B3
:103670000080808080800308080601FF2000202051
:103680002020A040040707060000808090A0C0A072
:1036900090030707060100C04040404040E0050598
:1036A00005060000D0A8A8A8A8050505060000B0DA
:1036B000C888888805050506000070888888700518
:1036C00006060600FFF08888F080800506060600E2
:1036D000FF788888780808050505060000B0C880CE
:1036E000808005050506000070807008F00407075B
:1036F0000600004040E0404040300505050600005F
:103700008888889868050505060000888888502004
:103710000505050600008888A8A8500505050600CF
:103720000088502050880506060600FF88888878A3
:103730000870050505060000F8102040F80307078B
:10374000060100204040804040200107070602009B
:1037500080808080808080030707060100804040D1
:10376000204040800502020600026890000000062A
:10377000000000060900FE0000000000010900082A
:10378000FE000005080806000040F0C88888987808
:1037900010050808060000C0F88888888888F805A1
:1037A00005050600012030F8302005080806000055
:1037B0002070F820202020E00509090600FF207075
:1037C000A8A8B8888870200509090600FFE080C015
:1037D000B0A8283028280509090600FFF8A888881D
:1037E000888888A8F8050A0A0600FE205050505024
:1037F00088A8A8887003030306000340A0409A002D
:10380000980011241FBECFEFD1E2DEBFCDBF00E094
:103810000CBF13E0A0E0B2E0E8E6FBE302E00BBF80
:1038200002C007900D92AC37B107D9F72BE1ACE796
:10383000B3E001C01D92AF3BB207E1F71BE1C0E06E
:10384000DCE100E006C021970109802FFE010F9402
:103850000F1DCF3FD10780E00807A9F70F94530849
:103860000D94A31D0C940000CF92DF92EF92FF9273
:10387000CF93DF93EC01C0902802D0902902E09012
:103880002A02F0902B02A7019601688179818A8132
:103890009B810F94251C181624F4C882D982EA82D1
:1038A000FB82C0902C02D0902D02E0902E02F0906E
:1038B0002F02A70196016C817D818E819F810F94DB
:1038C000251C181624F4CC82DD82EE82FF82C09083
:1038D0003002D0903102E0903202F0903302A70122
:1038E0009601688579858A859B850F94251C181615
:1038F00024F4C886D986EA86FB86DF91CF91FF90B3
:10390000EF90DF90CF900895CF92DF92EF92FF92E9
:1039100060917F0A7091800A072E000C880B990B2A
:103920000F949F136B017C012DEB37E346E855EBB9
:103930000F94251C87FD0BC02DEB37E346E855E3BC
:10394000C701B6010F94991318160CF043C0A701D4
:10395000960160E070E080E89FE30F94DB1A6093CB
:103960007404709375048093760490937704609147
:10397000810A7091820A072E000C880B990B0F9414
:103980009F136B017C012DEB37E346E855EB0F9459
:10399000251C87FD0AC02DEB37E346E855E3C70138
:1039A000B6010F9499131816CCF4A701960160E0A4
:1039B00070E080E89FE30F94DB1A609378047093C3
:1039C000790480937A0490937B04FF90EF90DF90CA
:1039D000CF90089560E070E0CB01C1CF60E070E06F
:1039E000CB01EBCF8091800390918103A091820362
:1039F000B09183038093600290936102A09362026E
:103A0000B093630280917E0390917F03909327028D
:103A10008093260208958091600290916102A091A6
:103A20006202B09163028093800390938103A0931C
:103A30008203B09383038091260290912702909392
:103A40007F0380937E0384E690E090932702809327
:103A5000260208950F931F93CF93DF9394E0899FDD
:103A6000E00111248E0109541D4EFE01EC51FF4E60
:103A7000DE01A855BB4F2D913D914D915C91608128
:103A80007181828193810F94FF19F80160837183A2
:103A900082839383FE01ED54FD4F85919591A5910D
:103AA000B491FE01E756FC4F80839183A283B383D8
:103AB000FE01E154FD4F85919591A591B491C85DAA
:103AC000DD4F88839983AA83BB83DF91CF911F91B8
:103AD0000F9108959091F410E92FF0E0E051FF4E1E
:103AE00080839F5F943040F49093F41080917B1218
:103AF0008F5F80937B1208951092F410F7CF089592
:103B000090E080E0089580E1E7ECF2E1A4EBB4E01E
:103B100001900D928A95E1F7089580E1E4EBF4E0DD
:103B2000A7ECB2E101900D928A95E1F7089580919A
:103B30004E0490914F042FEF3FEF981751F0E92F6B
:103B4000F0E0E253FC4F208130E09F5F9F7790933D
:103B50004F04C90108958F929F92AF92BF92CF9266
:103B6000DF92EF92FF920F93CF93DF931F92CDB727
:103B7000DEB76C017B014901809130055B01A40E29
:103B8000B51E8823A1F0F60180819181480F591F4D
:103B9000518340830F90DF91CF910F91FF90EF9071
:103BA000DF90CF90BF90AF909F908F900895F601D7
:103BB000808191810F949E19898390913105992379
:103BC00011F0002311F0F7018083BE016F5F7F4F7A
:103BD000C4010E9400E0F6018081918101969183E9
:103BE0008083FFEFEF1AFF0AEA14FB0401F7D2CF3C
:103BF0000F931F93CF93DF93EC010E94B2E50E81E8
:103C00001F8128853985011511052105310579F5B3
:103C10002C85222339F1EA8521502C8721E02E0FB3
:103C20002A873D85231301C01A86F0E03196EE0FF6
:103C3000FF1FEE0FFF1FEC0FFD1F0285138524856C
:103C400035850A831B832C833D83600F711F811D83
:103C5000911D6E837F83888799878C819D81892BB5
:103C600009F0409ADF91CF911F910F910895601B49
:103C7000710B820B930B97FDF5CF40981E821F822C
:103C800018861986EFCF80917C0390917D03009771
:103C900031F04AE050E070E060E00D94AD1060E07B
:103CA00070E0CB010895EFDF97FD0AC0ECDF6F3FB6
:103CB00071058105910509F02CF4E5DF862F089543
:103CC00080E008958FEF089580917C0390917D03AB
:103CD000892B39F0E8DF91E0811101C090E0892F54
:103CE000089591E0FCCFCF9320917B12243088F48B
:103CF000C62FBC019091F41020E6929FC0011124C0
:103D000086509F4E0F94741D8C2FE4DE81E0CF917E
:103D1000089580E0FCCFAF92BF92CF92DF92EF92F6
:103D20000F931F93CF93DF93CDB7DEB760970FB696
:103D3000F894DEBF0FBECDBF5C018B01E4DEE090E6
:103D4000A21284EBC82E84E0D82E84E0E89EF00115
:103D50001124E05EFD4F2081318142815381F501C4
:103D600060817181828193810F94DB1AF601248531
:103D70003585468557850F94FF19F6016487758749
:103D8000868797871D861E861F86188A8081918167
:103D9000A281B38189839A83AB83BC83848195811B
:103DA000A681B7818D839E83AF83B88780859185F7
:103DB000A285B38589879A87AB87BC87AE01475FA9
:103DC0005F4FBE016B5F7F4FCE0101960E9486C799
:103DD000CE010D966C0120EC34E0AE01475F5F4FE1
:103DE000BE016B5F7F4F0C970E941CB896DE0E944D
:103DF0001EC660960FB6F894DEBF0FBECDBFDF9132
:103E0000CF911F910F91EF90DF90CF90BF90AF9027
:103E10000895CF92DF92EF920F931F93CF93DF938A
:103E2000CDB7DEB760970FB6F894DEBF0FBECDBF3B
:103E3000E090A212E7ECF2E180859185A285B3853E
:103E4000448155816681778100811181228133818E
:103E500009831A832B833C834D835E836F8378872A
:103E600089879A87AB87BC871D861E861F86188A1E
:103E7000AE01475F5F4FBE016B5F7F4FCE01019682
:103E80000E9486C7CE010D966C0100E612E023ED7C
:103E900032E1AE01475F5F4FBE016B5F7F4F0C9712
:103EA0000E941CB860960FB6F894DEBF0FBECDBF5F
:103EB000DF91CF911F910F91EF90DF90CF900895F8
:103EC0008F929F92AF92BF92FF920F931F93CF93C7
:103ED000DF9300D01F92CDB7DEB7F82E662351F0E6
:103EE0001092880310928403109285031092860327
:103EF000109287030E94B2E54B015C01809184031C
:103F000090918503A0918603B0918703A501940148
:103F1000281B390B4A0B5B0BDA01C901B7FD45C001
:103F200020918803F7FC13C04F2D0F2C000C550B6C
:103F30004C5F5F4F822F022E000C990B48175907D8
:103F4000A4F184EF91E0A0E0B0E02F1524F488EE16
:103F500093E0A0E0B0E0880D991DAA1DBB1D8093E1
:103F6000840390938503A0938603B0938703022F65
:103F7000017010E024E2209FC001219F900D901B52
:103F8000112480599C4F9C838B8382E390E09A8319
:103F90008983BE016D5F7F4FCE0101960E94F7DEDF
:103FA000809188038F5F809388030F900F900F900C
:103FB0000F90DF91CF911F910F91FF90BF90AF9025
:103FC0009F908F90089580917C0390917D0300973E
:103FD00031F04AE050E070E060E00D94D91160E00B
:103FE00070E0CB010895FC0120E03EE2DB014D9141
:103FF000BD01403249F0283011F430833196DB01A5
:1040000011974C91408331962F5F2B3079F71082B6
:10401000089561E0FC0180810C944BE48EBD0DB4E9
:1040200007FEFDCF08958FEF8EBD0DB407FEFDCFC7
:104030008EB508958F929F92AF92BF92EF92FF92AA
:104040000F931F93CF937C01C62F49015A01FC01A6
:104050009281892F806A86958CBD90FD03C081E096
:10406000963009F480E08DBD60E0F70180810E9408
:104070004BE48CE291E00E9407E68C2F8064CEDF57
:1040800008E110E0D501C401002E04C0B695A79543
:10409000979587950A94D2F7C1DF08501109083F18
:1040A000FFEF1F0779F785E9CC2321F087E8C830B7
:1040B00009F08FEFB3DFCC3009F4B5DFC0E0B3DF38
:1040C000F701838387FF04C0CF3F11F0CF5FF7CFA5
:1040D000CF911F910F91FF90EF90BF90AF909F9065
:1040E0008F9008950F931F93CF93DF93EC01890175
:1040F0008C81833039F089E0440F551F661F771F8C
:104100008A95D1F79A01AB0168E1CE0193DF88234C
:1041100019F086E0898335C08EEF8EBDF801C801A5
:104120009E5F0DB407FEFDCF20812EBD0DB407FEAE
:10413000FDCF21812EBD3296E817F90791F70DB416
:1041400007FEFDCF8FEF6ADF8FEF68DF6CDF8B83B9
:104150008F71853091F488E592E00E9407E6182F70
:1041600087E11123B9F220E030E0A9016DE0CE0132
:1041700061DF882351F086E1CDCF83E18983CE01D1
:1041800048DFCE0146DF10E005C04DDF8111F3CFDF
:10419000CE013FDF812FDF91CF911F910F910895C5
:1041A000CF9380910015C1E0882399F04091F814D5
:1041B0005091F9146091FA147091FB1428EF32E1D8
:1041C00080910115909102158DDFC82F811104C0D7
:1041D000C0E08C2FCF9108954091FC145091FD14B4
:1041E0006091FE147091FF14411551056105710530
:1041F00089F028EF32E1809101159091021572DF6C
:10420000882331F31092FC141092FD141092FE14C6
:104210001092FF1410920015DCCFEF92FF920F93D3
:104220001F93CF93DF93EC0179018C81833039F0B8
:1042300089E0440F551F661F771F8A95D1F79A01B1
:10424000AB0161E1CE01F6DE882331F084E08983A1
:10425000CE01DFDE80E034C00E94B2E58B01E3DEF8
:104260008B838F3F71F40E94B2E5601B710B6D323E
:104270007140A8F381E18983CE01CBDE8FEFCEDEE2
:10428000E9CF8E3F11F08FE0F6CF8FEF8EBDF701B3
:10429000D701A150BE4F0DB407FEFDCF9EB591933F
:1042A0008EBDAE17BF07B9F70DB407FEFDCF8EB5B3
:1042B0008C93B9DEB8DECE01ACDE8FEFAFDE81E0ED
:1042C000DF91CF911F910F91FF90EF900895CF92C2
:1042D000DF92EF92FF92CF936B017C01C42F80910C
:1042E000F8149091F914A091FA14B091FB148C1564
:1042F0009D05AE05BF05F1F053DF811108C0C0E098
:104300008C2FCF91FF90EF90DF90CF90089528EF02
:1043100032E1B701A60180910115909102157DDF70
:10432000882369F3C092F814D092F914E092FA1439
:10433000F092FB14CC2321F081E080930015E0CFB4
:10434000C1E0DECF4F925F926F927F928F929F92E9
:10435000AF92BF92CF92DF92EF92FF920F931F9393
:10436000CF93DF93EC01423051056105710590F464
:1043700080E0DF91CF911F910F91FF90EF90DF9040
:10438000CF90BF90AF909F908F907F906F905F90F5
:104390004F90089589859A85AB85BC850196A11DAE
:1043A000B11D84179507A607B70710F38F898031D1
:1043B000C1F5852E962EA72EBB248B899C89AD89AD
:1043C000BE89880E991EAA1EBB1E280139016A01EA
:1043D0007B0141E0C501B4017ADF882349F29F895E
:1043E000903181F5DD24EE24FF24F601EE0FFF1F4E
:1043F000E850FD4E118300839A89923008F4B9CFBA
:104400004D815E816F817885840E951EA61EB71E34
:104410008092FC149092FD14A092FE14B092FF14AE
:10442000A8CF803209F0A4CF8B899C89AD89BE8941
:104430004A015B01E7E0B694A79497948794EA95C4
:10444000D1F7BFCFE894C7F8DD24EE24FF24F601AE
:10445000EE0FFF1FEE0FFF1FE850FD4E408251820E
:1044600062827382C9CFCF92DF92EF92FF920F9355
:104470001F93CF93DF93FC0181859285A385B4853B
:104480000196A11DB11D84179507A607B70750F423
:1044900080E0DF91CF911F910F91FF90EF90DF901F
:1044A000CF90089587898031A9F5BB27A72F962F34
:1044B000852FC388D488E588F6888C0D9D1DAE1D98
:1044C000BF1DE9016A017B018F014091F8145091F1
:1044D000F9146091FA147091FB1484179507A607DC
:1044E000B70749F5F8018789803161F5B701A60161
:1044F000552766277727440F551F48505D4EFA0110
:1045000080819181B0E0A0E088839983AA83BB83F6
:1045100081E0BFCF803209F0BBCFC388D488E58863
:10452000F688DB01CA01C7E0B695A79597958795F0
:10453000CA95D1F7C2CF40E0BC01CD01C8DE8111E0
:10454000D1CFA6CFB701A6014F775527662777278A
:10455000440F551F440F551F48505D4EFA0180818E
:104560009181A281B381BF70CFCF4F925F926F9242
:104570007F92AF92BF92CF92DF92EF92FF920F9312
:104580001F93CF93DF9300D01F92CDB7DEB78C017E
:1045900049835A836B837C835901C12CD12C7601CA
:1045A000412C82E0582E612C712C49815A816B81FB
:1045B0007C819E012F5F3F4FC80155DF882319F191
:1045C000F8018585A301920104C0220F331F441F07
:1045D000551F8A95D2F7DA01C901C80ED91EEA1E05
:1045E000FB1E49815A816B817C8187898031F1F47E
:1045F00081E0483F5F4F61057105B8F2F501C08267
:10460000D182E282F3820F900F900F900F90DF9192
:10461000CF911F910F91FF90EF90DF90CF90BF90BF
:10462000AF907F906F905F904F90089581E0483FEA
:104630005F4F6F4F7F4008F4B8CFE0CF0F931F93C9
:10464000CF93DF93FC012381222331F080E0DF91BF
:10465000CF911F910F9108958B01EC01FB01878988
:10466000803139F582E08B831D8A1E8A1F8A188E5D
:10467000808D918DB0E0A0E025E0880F991FAA1FE2
:10468000BB1F2A95D1F7898B9A8BAB8BBC8B1A8F6A
:10469000098F81E08983188619861A861B861C82F9
:1046A0001D821E821F82188A1C861D861E861F86FA
:1046B000CECF803259F683E08B83428D538D648D4B
:1046C000758D4D8B5E8B6F8B788F9E012F5E3F4F6C
:1046D000C8014BDF8111DBCFB9CF8F929F92AF9290
:1046E000BF92CF92DF92EF92FF920F931F93CF93DF
:1046F000DF93EC018B8181110EC080E0DF91CF91BF
:104700001F910F91FF90EF90DF90CF90BF90AF90EF
:104710009F908F90089509891A892B893C890417E5
:1047200015072607370748F34A015B01823031F449
:1047300088869986AA86BB8681E0E0CF81149104A1
:10474000A104B10449F4188619861A861B861C82B6
:104750001D821E821F82F0CF088519852A853B8520
:10476000E98DFA8D858590E00996B901A80141503F
:10477000510961097109082E04C07695679557950E
:1047800047950A94D2F775016401E1E0CE1AD10889
:10479000E108F10804C0F694E794D794C7948A9589
:1047A000D2F7C416D506E606F70620F0012B022B39
:1047B000032B09F58D899E89AF89B88D8C839D83E4
:1047C000AE83BF838E010C5F1F4FC114D104E1047F
:1047D000F10409F4ADCF4C815D816E817F81980138
:1047E000898D9A8D40DE91E0C91AD108E108F1085F
:1047F0008111EBCF82CFC41AD50AE60AF70AE2CFBD
:1048000040E050E0BA0169CF3F924F925F926F92C1
:104810007F928F929F92AF92BF92CF92DF92EF9250
:10482000FF920F931F93CF93DF93CDB7DEB72C97F3
:104830000FB6F894DEBF0FBECDBF5C01DC01599608
:104840008D909C90F40181859285A385B4859C010F
:10485000AD012F5F3F4F4F4F5F4F29873A874B87FF
:104860005C87D50114964D905D906D907C90179764
:10487000411451046104710409F458C0BFEF4B1A8C
:104880005B0A6B0A7B0A312C730162011D821E8256
:104890001F821886F40181859285A385B4852D81B8
:1048A0003E814F815885281739074A075B0708F072
:1048B00054C089859A85AB85BC858C159D05AE0550
:1048C000BF0550F482E0C82ED12CE12CF12C92E0EF
:1048D000492E512C612C712C9E012F5F3F4FB70147
:1048E000A601C401C0DD8823C1F189819A81AB8111
:1048F000BC81892B8A2B8B2B01F1260137019FEF7D
:10490000491A590A690A790A2D813E814F815885D1
:104910002F5F3F4F4F4F5F4F2D833E834F8358870D
:104920003FEFC31AD30AE30AF30AB4CF40805180A1
:104930006280738033243394A7CFC414D504E60473
:10494000F70411F70FEF1FEF2FEF3FE0B701A601BC
:10495000C401F8DC782E81111AC0712C872D2C9699
:104960000FB6F894DEBF0FBECDBFDF91CF911F9180
:104970000F91FF90EF90DF90CF90BF90AF909F90FE
:104980008F907F906F905F904F903F900895F501CA
:104990004481558166817781411551056105710515
:1049A00031F097018601C401CDDC8823B1F2D50135
:1049B0001496CD92DD92ED92FC921797332051F030
:1049C000D701C6010196A11DB11DF4018083918319
:1049D000A283B383F50185899689A789B08D892B38
:1049E0008A2B8B2B09F0BACFC58AD68AE78AF08E3C
:1049F000818180688183B2CFCF93DF93EC01462F12
:104A000041706C857D858E859F8561DC882351F0A2
:104A1000888920E2829FC001112488509D4EDF9139
:104A2000CF91089590E080E0FACFCF93DF93EC012F
:104A30008B81882339F1898187FF21C061E0CE0114
:104A4000DBDFFC01892BF1F08081853ED9F08B8181
:104A5000823040F489899A89AB89BC89848F958F8B
:104A6000A68FB78F8D899E89938F828F8D899E891E
:104A7000AF89B88DB58BA48B89818F778983DF91BE
:104A8000CF918ECB81E0888380E0DF91CF91089534
:104A90002F923F924F925F926F927F928F929F924E
:104AA000AF92BF92CF92DF92EF92FF920F931F933C
:104AB000CF93DF9300D01F92CDB7DEB78C014B01AF
:104AC0001A01DC0113968C911397813009F0C7C04D
:104AD00011968C9181FFC3C082FDAEC06101D801E7
:104AE00018964D915D916D917C911B97C114D104E5
:104AF00009F414C159968D919C915A97FC017480C8
:104B00002FEF270D2A013B0139E0769467945794E3
:104B100047943A95D1F7722E74207A01F1E0FF2282
:104B200071101FC0E114F104E1F414964D915D91F0
:104B30006D917C911797411551056105710509F03B
:104B400094C055968D919D910D90BC91A02D00978C
:104B5000A105B10509F0A1C0C80156DE882309F4FA
:104B60007EC080E092E08E199F0956018C159D054C
:104B700008F45C01D80159964D915C915A971496AE
:104B80008D919D910D90BC91A02D0297A109B10925
:104B9000FA01258504C0880F991FAA1FBB1F2A95FB
:104BA000D2F74685578560897189840F951FA61FA6
:104BB000B71F9C01AD01270D311D411D511D29015C
:104BC0003A01A11432E0B30609F075C08091F814DF
:104BD0009091F914A091FA14B091FB14481659065B
:104BE0006A067B0669F4109200158FEF9FEFDC01D7
:104BF0008093F8149093F914A093FA14B093FB14D3
:104C00009401B301A20180910115909102156ADA15
:104C1000882329F1F80180859185A285B3858A0DC5
:104C20009B1DA11DB11D80879187A287B3878A0C28
:104C30009B1CCA18DB0853CFF8014189528963894C
:104C4000748980859185A285B385481759076A07BD
:104C50007B0709F443CFC80140DD81113FCF81E0DC
:104C6000D8018C938FEF9FEF6FC09E012F5F3F4F56
:104C7000FADB8823A1F389819A81AB81BC81F80199
:104C8000218D328DF9012789203169F4883FFFEFAA
:104C90009F07A105B10508F05FCFF80184839583D4
:104CA000A683B7835ECF883F2FEF9207A2072FE03E
:104CB000B20798F351CFE114F10449F5D8011896E1
:104CC0004D915D916D917C911B9751968D919D9128
:104CD0000D90BC91A02D481759076A077B07B8F0C3
:104CE0005FDA882309F4BBCF81E0809300154092FE
:104CF000F8145092F9146092FA147092FB14A50102
:104D0000B401C70188509D4E0F94321D83CF41E0FE
:104D1000C301B201DCDA8111F2CFA1CFF8018189A0
:104D20009289A389B48984179507A607B70738F431
:104D30008181418B528B638B748B80688183F801F6
:104D4000818183FD18C0C1010F900F900F900F90CB
:104D5000DF91CF911F910F91FF90EF90DF90CF9057
:104D6000BF90AF909F908F907F906F905F904F908B
:104D70003F902F900895C80158DE8111E4CF6FCF86
:104D8000CF93DF931F92CDB7DEB7698341E050E048
:104D9000BE016F5F7F4F04967BDE0F90DF91CF9156
:104DA0000895CF93DF93EC0140DE1B82DF91CF911A
:104DB0000895CF93DF93EB01FC012381211104C0FF
:104DC00080E0DF91CF9108952250223028F48FE2C5
:104DD0008883198281E0F5CF60E00EDE009781F3D1
:104DE000DC0160E080E09EE22D91203299F0883075
:104DF00031F49E01260F311DF90190836F5F9E01F2
:104E0000260F311DAD0141505109FA014081F901D0
:104E100040836F5F8F5F8B3039F7FE01E60FF11D26
:104E20001082D8CF0F931F93CF93DF938B01EA01AA
:104E3000DB016D917C910496BCDFD801ED91FC9172
:104E4000119788819081992349F08D38A0F431968B
:104E5000ED93FC9388818F5F8883EFCF8D3858F472
:104E60008FE28083F8018081918101969183808314
:104E700088818F5F8883DF91CF911F910F91089573
:104E80002F923F924F925F926F927F928F929F925A
:104E9000AF92BF92CF92DF92EF92FF920F931F9348
:104EA000CF93DF9300D01F92CDB7DEB79C838B8367
:104EB0004B017A01DC0113968C91811119C08FEF9F
:104EC0009FEF0F900F900F900F90DF91CF911F9158
:104ED0000F91FF90EF90DF90CF90BF90AF909F9099
:104EE0008F907F906F905F904F903F902F9008959C
:104EF000EB81FC81818180FFE2CF018912892389C6
:104F000034894085518562857385C701B0E0A0E092
:104F100028013901441A550A660A770A48165906C3
:104F20006A067B0618F47801E41AF50A67018B819A
:104F30009C8104969A838983612C32E0732EC1147C
:104F4000D10409F4B4C0AB81BC8118964D915D9138
:104F50006D917C911B975A01B1E0BB22EB81FC81E2
:104F6000818D928D1A012B0129E056944794379434
:104F700027942A95D1F72381223089F5DC015A96AE
:104F80006D917D918D919C915D97620D731D841D36
:104F9000951D83010A191B09C016D10608F4860164
:104FA0000115B2E01B0771F42091F8143091F91447
:104FB0004091FA145091FB14621773078407950708
:104FC00009F057C040E083D9882309F478CFB501B0
:104FD00068507D4EA801C4010F94321D55C0FC01DC
:104FE000148111501221A114B10481F411110EC0C9
:104FF000452B462B472B79F5EB81FC8185899689DA
:10500000A789B08D84839583A683B783AB81BC8148
:105010005996ED91FC915A9714966D917D918D91D1
:105020009C9117976250710981099109258504C0E7
:10503000660F771F881F991F2A95D2F72685378517
:1050400040895189620F731F841F951F610F711D65
:10505000811D911D9ECFAB81BC8114964D915D91B8
:105060006D917C91179729813A81FDD98111CECF1D
:1050700026CF9401AB01BC018091011590910215DE
:10508000CCD8882309F41BCF800E911EEB81FC81C4
:1050900080859185A285B385800F911FA11DB11DCB
:1050A00080879187A287B387C01AD10A48CFC701EA
:1050B00008CFDF92EF92FF920F931F93CF93DF936E
:1050C0008C01EB017A018DE0D82E40E250E0BE0168
:1050D000C801D6DE8032910571F021E0892B09F4F8
:1050E00020E0822F8195DF91CF911F910F91FF904A
:1050F000EF90DF90089528812223F1F1253E11F0F1
:105100002E3231F4E114F10401F3F7011082DDCF06
:10511000E114F10439F13B853F733F3019F54A8DB5
:105120005B8D452BF9F42F713FEF320F3230D0F405
:105130002150330BD29EC001D39E900D1124D70174
:10514000A80FB91FFE0120E0AD01253078F43181B0
:105150003D932F5F32962D30C1F7288126FF02C084
:10516000FA0115862B8523FDB0CFBDCF2B3010F46F
:105170003481EECF3681ECCF80E0B5CF4F925F9295
:105180006F927F92AF92BF92CF92DF92EF92FF9297
:105190000F931F93CF93DF931F92CDB7DEB78C0190
:1051A0007B015A01C22EDB0159968D919C91F80129
:1051B000928F818FCB0124DB712CF7018085918543
:1051C000A285B385418952896389748984179507BB
:1051D000A607B70708F051C055E0B695A795979573
:1051E00087955A95D1F7F82FFF70DF2ED7011396C8
:1051F0008C91823010F480E0D9C041E050E0BE01D3
:105200006F5F7F4FC7013CDE0197A9F7F7018085EB
:105210009185A285B3854F96A11DB11D8087918789
:10522000A287B387F0E2DF9EB001112468507D4E63
:105230006115710501F3DB018C91882341F0853EF6
:1052400009F04BC0772029F077247394B6CF711002
:105250000EC08091F8149091F914A091FA14B091B5
:10526000FB14F80184879587A687B787D08ADB016E
:105270008C918111E9CF772473948C2D82748234C0
:1052800009F0B9CF772009F4A1C0F801D08861E016
:10529000C801B2DB009709F4AECF20E2DC011D9219
:1052A0002A95E9F72BE0F501DC0101900D922A9592
:1052B000E1F721E238E2FC01318B208B40E058E03D
:1052C00057874687338B228B318F208F578B468BA6
:1052D0000E94D020811109C08ECF4BE050E0C50163
:1052E0000F94251D892B09F068CFF0E2DF9ED001D5
:1052F00011249D0128503D4EF9018385817121F0D3
:105300008C2D827109F0FAC0F801818D928D409147
:10531000F8145091F9146091FA147091FB144487B9
:10532000558766877787D08AFD01E850FD4E44880F
:105330005588712C612C320155244424D80155968E
:105340004D925D926D927C925897428D538D70E094
:1053500060E0442955296629772955964D935D9338
:105360006D937C935897D9011B962C91287109F065
:10537000B8C0848D958DA68DB78DF801818B928BE9
:10538000A38BB48B81E083838C2D8F70F801818394
:105390001482158216821782108611861286138651
:1053A00081E0C4FE03C0C8010E9463DE0F90DF915C
:1053B000CF911F910F91FF90EF90DF90CF90BF9012
:1053C000AF907F906F905F904F900895D7011396A4
:1053D0008C911397823009F40ECF51968D919D9147
:1053E0000D90BC91A02D803E9F4FAF41B10508F0BC
:1053F00002CFC70109DA882309F4FDCE0E94D0202C
:10540000882309F4F8CED7015996ED91FC915A976B
:1054100014964D905D906D907C901797B2E04B1A6A
:10542000510861087108858504C0440C551C661C30
:10543000771C8A95D2F786859785A089B189480E11
:10544000591E6A1E7B1E81E0809300154092F8145D
:105450005092F9146092FA147092FB14E8EFF2E1A2
:1054600080E092E0DF019C011D9221503040E1F785
:10547000DD24D394D7015996ED91FC918481D816FF
:1054800098F428EF32E1B301A2014D0D511D611DC9
:10549000711D80910115909102150E947220882340
:1054A00009F4A9CED394E6CF258580E092E0A0E070
:1054B000B0E004C0880F991FAA1FBB1F2A95D2F71E
:1054C000F7014189528963897489840F951FA61F4A
:1054D000B71F818B928BA38BB48B88EF92E1D12C79
:1054E000DCCE203159F498012F5E3F4F3ED88823FF
:1054F00029F084E0D80113968C9346CFD8011396F7
:105500001C9279CE4F925F926F927F928F929F9270
:10551000AF92BF92CF92DF92EF92FF92CF934B0167
:105520005C0169017A0120E030E040E152E40F942F
:10553000FE192B013C012FE632E143E85AEB0F94B0
:10554000251C87FD48C021E230E046E953E4C30151
:10555000B2010F94991318160CF43DC02FE632E1F6
:1055600043E85AEBC701B6010F94251C87FD33C0F1
:1055700021E230E046E953E4C701B6010F949913E4
:1055800018164CF12AEF3EEF4FE052E4C501B4018A
:105590000F94251C87FD1FC021E230E041E953E450
:1055A000C501B4010F9499131816ACF027EE3BEF28
:1055B0004FE151E4C701B6010F94251C87FD0BC0D4
:1055C000C1E021E230E041E953E4C701B6010F94A4
:1055D000991318160CF4C0E08C2FCF91FF90EF9028
:1055E000DF90CF90BF90AF909F908F907F906F9003
:1055F0005F904F9008955F9A8091B6128E7F80934E
:10560000B6128A9A8091B6128D7F8093B6128091DD
:10561000080180958170809306018091B6128B7F7E
:105620008093B612129A0895CF92DF92EF92FF9272
:10563000CF9380916F00C82FC27081FF05C0809109
:105640006F008D7F80936F0080E00E94DEB56B015C
:105650007C0181E00E94DEB56C0D7D1D8E1D9F1DBD
:105660000F949F1320E030E040E05FE30F94FE13BF
:105670009B01AC01CC2329F080916F008260809364
:105680006F00609176057091770580917805909113
:1056900079050F94FE136093A9127093AA12809358
:1056A000AB129093AC1280916F00C82FC27081FF33
:1056B00005C080916F008D7F80936F0080E00E9415
:1056C000DEB56B017C0181E00E94DEB5A701960189
:1056D000261B370B480B590BCA01B9010F949F13B6
:1056E00020E030E040E05FE30F94FE139B01AC014B
:1056F000CC2329F080916F00826080936F006091CD
:105700007A0570917B0580917C0590917D050F94C1
:10571000FE136093AD127093AE128093AF1290930C
:10572000B01282E00E94DEB50F949F139B01AC0182
:1057300060917E0570917F05809180059091810533
:105740000F94FE136093B1127093B2128093B31250
:105750009093B412CF91FF90EF90DF90CF90089587
:105760004F925F926F927F928F929F92AF92BF9271
:10577000CF92DF92EF92FF920F931F93CF93DF931D
:10578000EC0160912C0570912D05072E000C880B03
:10579000990B0F949F139B01AC01688179818A81D9
:1057A0009B810F94FE196B017C0160912E05709115
:1057B0002F05072E000C880B990B0F949F139B014C
:1057C000AC016C817D818E819F810F94FE194B010C
:1057D0005C01A70196016091060270910702809119
:1057E0000802909109020F949913882309F459C073
:1057F000C0920602D0920702E0920802F0920902DB
:10580000209174043091750440917604509177048E
:10581000C701B6010F94FE132B013C010F94741BBA
:105820006B017C0120E030E0A9010F94991387FD02
:1058300079C020E030E040E050E4C701B6010F94A9
:10584000251C18162CF4C12CD12CE12CC0E4FC2E04
:10585000A7019601C301B2010F94FE192B013C016F
:1058600020E030E0A9010F94991387FD5FC04092BA
:105870007004509271046092720470927304C701B4
:10588000B6010F94431B60936F04062E000C770B38
:105890006F5F7F4F6230710514F062E070E06093DB
:1058A0006E0410910102D0916F04A50194016091E2
:1058B00002027091030280910402909105020F94FC
:1058C000991381113CC01D1393C020915004309155
:1058D00051044091520450915304609170047091AE
:1058E000710480917204909173040F94FE132091BF
:1058F00054043091550440915604509157040F942C
:10590000FF19DF91CF911F910F91FF90EF90DF90E2
:10591000CF90BF90AF909F908F907F906F905F904F
:105920004F900895C12CD12C760192CF1092700423
:10593000109271041092720410927304A0CF80929E
:10594000020290920302A0920402B09205022091FA
:1059500078043091790440917A0450917B04C50118
:10596000B4010F94FE134B015C010F94741B6B0187
:105970007C0120E030E0A9010F94991387FD01C15B
:1059800020E030E040E050E4C701B6010F94251C50
:1059900018162CF4C12CD12CE12CB0E4FB2EA7015D
:1059A0009601C501B4010F94FE194B015C0120E082
:1059B00030E0A9010F94991387FDE7C080926A0433
:1059C00090926B04A0926C04B0926D04C701B60172
:1059D0000F94431B60936904062E000C770B6F5FD6
:1059E0007F4F6230710514F062E070E060936804EC
:1059F000C09169041D1305C0809100028C1709F441
:105A000075C0D0930102C09300028D2FDD0F990B5A
:105A10000C2E000CDD0BAC01440F551F840F951F9D
:105A2000FC01EC0FFD1FEE0FFF1FEE0FFF1FEA5CE6
:105A3000FA4F208131814281538120936404309355
:105A400065044093660450936704E09168040E2F48
:105A5000EE0F110BDC01A00FB11FAA0FBB1FAA0F85
:105A6000BB1FAA5CBA4F6D917D918D919C910F9453
:105A7000FE196093600470936104809362049093B4
:105A8000630480916E04282F880F330BC901880F9F
:105A9000991F820F931FC80FD91FCC0FDD1FCC0F8A
:105AA000DD1FCA5CDA4F288139814A815B812093EE
:105AB0005C0430935D0440935E0450935F04FC01EA
:105AC000E00FF11FEE0FFF1FEE0FFF1FEA5CFA4F12
:105AD00060817181828193810F94FE1960935804D3
